:020000040000FA
:020000004D2889
:08000800820741343034453415
:100010002B343134323433342D34343435343634B3
:100020002A343734383439342F340F308804831667
:100030008504F030880583120800CB01CA01CA0389
:100040008811AE22312088150811AE223120081502
:100050008810AE22312088140810AE2231200814F6
:100060000800CA0A051C3E20CA0A851C3E20CA0A8E
:10007000051D3E20CA0A851D3E2008004A080420AE
:10008000C9004B14A522AE22051C4320851C432029
:10009000051D4320851D4320080083160712871184
:1000A00087128312071687118712F9229D231520C4
:1000B000831606309F0083120330B0001D204B1CB6
:1000C00038214908AC00D7005822B0031D204B1C32
:1000D0003D214908AD00D8005822B0031D204B1C1B
:1000E00042214908AE00D9005822B0039221CB1C0E
:1000F000992183160710CB0107309C004B1030303C
:1001000049029630810007309C0083168312032435
:10011000BC23861CC428861D2629061C9328061D80
:1001200096284E29892883120710DE288312071487
:1001300099288316FA309200831295010C309700AB
:100140008316071183120230920091011215A30148
:10015000B43015069507A309861CBE28061C212964
:10016000061E2E29C822861CBE28061E2E29061C05
:1001700021299C226629061DC728B32800301506B0
:1001800095020630D522C428061C9328C4281508D9
:10019000B43A0319CC20D520003015069502BB22B5
:1001A000FA3015069507C822AC28003015069502CE
:1001B000BB22B43015069507C822AC288316FA3046
:1001C0009200831295010C30970083160711831259
:1001D0000230920091011215A301B4301506950763
:1001E000A309861D1629061D1C29C822861D16294D
:1001F000061D1C299C227C29061CFF28F6281508B0
:10020000B43A031904210D21003015069502BB22D2
:10021000FA3015069507C822F12000301506950220
:10022000BB22B43015069507C822F1200030150610
:1002300095020630D5222629003015069502D522D2
:100240009628003015069502D5229328061D96287B
:100250002629003015069502D5228928003015067A
:1002600095029C224B3015069507861CBE28352921
:100270000D233D1C5E20B600662017233E1C662021
:10028000B7006E2021233F1C6E20B80021233F1CA5
:1002900046290D3A031D4629A82108009C2246083C
:1002A0003F3A9C22031958212B23401C0800B90017
:1002B0009C223F30C6002B23401C59290D3A031DB8
:1002C0006229352BC601B901BC2389289C22470825
:1002D0003F3A9C22031970214B23411C0800BA00AD
:1002E0009C223F30C7004B23411C71290D3A031D4E
:1002F0007A29552BC701BB289C2248083F3A9C22EB
:10030000031986217223421C0800BB009C223F3047
:10031000C8007223421C87290D3A031D90297C2BAB
:10032000C801FC283930B1003730B2003430B10098
:1003300008002C08393A03199E29C7292D08373A95
:100340000319A329C7292E08343A0319B729C72945
:100350003608393A0319AD29C7293708373A03193E
:10036000B229C7293808343A0319B729C729831293
:100370008711071287162324D522D522D52287126A
:10038000AC01AD01AE01B601B701B801792083120D
:100390008715071287120624D522D522D522AC0153
:1003A000AD01AE01B601B701B8014D20D301D201B4
:1003B0000830D1004E080310D00C0318D207D20C1D
:1003C000D30CD10BDC2908005008D001CE02031C4D
:1003D000EB29D00AE629CE0708000301D718C83E4A
:1003E0005718643ED4003030D80258085807D80750
:1003F000D807580DD40730305902D4070800D5016A
:10040000D601D701D801D90127304D02031C192A82
:100410000319122ACD0010304E02CE00031CCD036A
:10042000D50A042A10304E02031C192ACE00CD0131
:10043000102A03304D02031C2E2A0319272ACD004F
:10044000E8304E02CE00031CCD03D60A192AE8304C
:100450004E02031C2E2ACE00CD01252A6430CD0881
:100460000319382A4E02031CCD03CE00D70A2E2AC8
:1004700064304E02031C3F2AD70ACE00382A0A30C5
:100480004E02031C462AD80ACE003F2A4E08D90045
:100490000800831688018901831238305F223830C2
:1004A0005F2206305F220C305F2201305F2208009D
:1004B0000914891488008910063066220800091082
:1004C000891488008910123066220800DB00FF3092
:1004D000DA006400DA0B692ADB0B672A08002F3088
:1004E000A9000630AA00A90B732AAA0B732A0800D8
:1004F0006130A9000B30AA00A90B7C2AAA0B7C2A28
:1005000008009330A9001030AA00A90B852AAA0B75
:10051000852A0800C530A9001530AA00A90B8E2A2B
:10052000AA0B8E2A0800F730A9001A30AA00A90BDE
:10053000972AAA0B972A0800F030A9003430AA00A5
:10054000A90BA02AAA0BA02A0800E230A900683053
:10055000AA00A90BA92AAA0BA92A0800B930A90048
:100560000430AA000230AB00A90BB42AAA0BB42AAB
:10057000AB0BB42A08007530A9000830AA0003307C
:10058000AB00A90BC12AAA0BC12AAB0BC12A0800D8
:100590005C30A9002630AA000B30AB00A90BCE2A94
:1005A000AA0BCE2AAB0BCE2A0800BD30A9004B30D7
:1005B000AA001530AB00A90BDB2AAA0BDB2AAB0B78
:1005C000DB2A080081309F00080089309F00080066
:1005D00099309F0008001A30DE00DE0BED2A1F154F
:1005E0001F19F02A1E08DC0083161E088312DD0086
:1005F00008001812000018168316203098001930D1
:10060000990083129030980099019A01080083168E
:10061000981C082B8312990008003D102030180503
:10062000031D992B8C1E08001A083D1408003E106B
:1006300020301805031D992B8C1E08001A083E1443
:1006400008003F1020301805031D992B8C1E080050
:100650001A083F140800401020301805031D992B7C
:100660008C1E92201A084014080039084F3A0319CA
:100670003F2B3908433A0319432B472B472BC6011D
:10068000B901BC239320C601B901BC239620C60141
:10069000B901BC238920411020301805031D992B76
:1006A0008C1EBB201A08411408003A08433A03196B
:1006B000622B3A084F3A0319662B3A08533A03194A
:1006C0006A2B6E2BC701BA01BC23C720C701BA0130
:1006D000BC232121C701BA01BC232921C701BA01CA
:1006E000BC23BB20421020301805031D992B8C1E03
:1006F000FC201A08421408003B084F3A0319892BC2
:100700003B08433A03198D2B3B08533A0319912BAD
:10071000952BC801BB01BC23FF20C801BB01BC2332
:100720001C21C801BB01BC232921C801BB01BC237A
:10073000FC2018120000181608000D300723453061
:1007400007236E3007237330072369300723723085
:1007500007236130072320300723733007236530D8
:1007600007236E30072368300723613007233A30B0
:1007700007232030072308000D30072328300723E4
:100780004F300723293007234130072362300723E6
:100790007230072369300723723007232030072384
:1007A0002F30072320300723283007234330072327
:1007B000293007234630072365300723633007239A
:1007C0006830072361300723723007232030072366
:1007D0002F300723203007232830072353300723E7
:1007E0002930072350300723613007237230072355
:1007F0006130072372300723203007233A30072364
:100800002030072308000C30072308000D30072391
:1008100053300723653007236E30072368300723E2
:100820006130072320300723653007237230072308
:1008300072300723613007236430072361300723B8
:100840002130072308000D3007235330072365307C
:1008500007236E30072368300723613007232030D9
:100860000723633007236F3007237230072372306A
:1008700007236530072374300723613007232130B5
:040880000723080042
:02400E00022F7F
:00000001FF
